{
  "contractName": "Ownable",
  "abi": [
    {
      "inputs": [],
      "payable": false,
      "stateMutability": "nonpayable",
      "type": "constructor"
    },
    {
      "anonymous": false,
      "inputs": [
        {
          "indexed": true,
          "internalType": "address",
          "name": "previousOwner",
          "type": "address"
        },
        {
          "indexed": true,
          "internalType": "address",
          "name": "newOwner",
          "type": "address"
        }
      ],
      "name": "OwnershipTransferred",
      "type": "event"
    },
    {
      "constant": true,
      "inputs": [],
      "name": "owner",
      "outputs": [
        {
          "internalType": "address",
          "name": "",
          "type": "address"
        }
      ],
      "payable": false,
      "stateMutability": "view",
      "type": "function"
    },
    {
      "constant": false,
      "inputs": [
        {
          "internalType": "address",
          "name": "newOwner",
          "type": "address"
        }
      ],
      "name": "transferOwnership",
      "outputs": [],
      "payable": false,
      "stateMutability": "nonpayable",
      "type": "function"
    }
  ],
  "bytecode": "0x608060405234801561001057600080fd5b50336000806101000a81548173ffffffffffffffffffffffffffffffffffffffff021916908373ffffffffffffffffffffffffffffffffffffffff160217905550610274806100606000396000f3fe608060405234801561001057600080fd5b50600436106100365760003560e01c80638da5cb5b1461003b578063f2fde38b14610085575b600080fd5b6100436100c9565b604051808273ffffffffffffffffffffffffffffffffffffffff1673ffffffffffffffffffffffffffffffffffffffff16815260200191505060405180910390f35b6100c76004803603602081101561009b57600080fd5b81019080803573ffffffffffffffffffffffffffffffffffffffff1690602001909291905050506100ee565b005b6000809054906101000a900473ffffffffffffffffffffffffffffffffffffffff1681565b6000809054906101000a900473ffffffffffffffffffffffffffffffffffffffff1673ffffffffffffffffffffffffffffffffffffffff163373ffffffffffffffffffffffffffffffffffffffff161461014757600080fd5b600073ffffffffffffffffffffffffffffffffffffffff168173ffffffffffffffffffffffffffffffffffffffff16141561018157600080fd5b8073ffffffffffffffffffffffffffffffffffffffff166000809054906101000a900473ffffffffffffffffffffffffffffffffffffffff1673ffffffffffffffffffffffffffffffffffffffff167f8be0079c531659141344cd1fd0a4f28419497f9722a3daafe3b4186f6b6457e060405160405180910390a3806000806101000a81548173ffffffffffffffffffffffffffffffffffffffff021916908373ffffffffffffffffffffffffffffffffffffffff1602179055505056fea265627a7a72315820222109d88bb2769e343243661233ca192db1803d9734d3aeef13d5780df2865d64736f6c63430005100032",
  "source": "pragma solidity >=0.4.0 <0.7.0;\r\n\r\n// titre du contract = PatientRecords\r\n// laisse l'acces aux centre hospitalier de stocker les infos des patient a partir de leur reseau respectifs\r\n// ces enregistrements peuvent etre acceder par d'autres centres avec l'accord du patient qui donnera son nom\r\n\r\n\r\n\r\ncontract Ownable {\r\n    address public owner;\r\n\r\n    event OwnershipTransferred(address indexed previousOwner, address indexed newOwner);\r\n\r\n    constructor() public {\r\n        owner = msg.sender;\r\n    }\r\n\r\n\r\n    modifier onlyOwner() {\r\n        require(msg.sender == owner);\r\n        _;\r\n    }\r\n    function transferOwnership(address newOwner) public onlyOwner {\r\n        require(newOwner != address(0));\r\n        emit OwnershipTransferred(owner, newOwner);\r\n        owner = newOwner;\r\n    }\r\n\r\n}\r\n\r\n\r\n\r\ninterface InterfacePatient {\r\n    /*\r\n    * Public functions\r\n    */\r\n    /// fonction pour ajouter un nouveau centre\r\n    function addCentre(address _centre) external;\r\n\r\n    /// fonction pour ajouter un nouveau patient\r\n    function addPatient(address _patient) external;\r\n\r\n    function addmtd(\r\n        address _patientAddress,\r\n        address _centre,\r\n        string calldata _mtdhash) external;\r\n\r\n    function getmndhash(uint _recordID, address _patientAddress) external view\r\n      returns(\r\n        string memory _mndhash);\r\n\r\n}\r\n\r\n\r\ncontract PatientRecords is Ownable, InterfacePatient{\r\n\r\n    /*\r\n    * Evenements\r\n    */\r\n    //event Deposit(address indexed sender, uint256 value);\r\n    event CentreAddition(address centre); // ajout de centre\r\n    event PatientAddition(address patient);  // ajout de patient\r\n    event PatientMndAdded(address patient);  // ajout de dse mnd patient\r\n    event PatientRecordAdded(uint256 recordID, address patientAddress);  // ajout de dse de patient\r\n    event PatientRecordAdded1(uint256 recordID); //ajout de patient en json\r\n    event NameAddedToRecords(uint256 recordID, address patientAddress);  //\r\n    event MailAddedToRecords(uint256 recordID, address patientAddress);  //\r\n    event PasspAddedToRecords(uint256 recordID, address patientAdd);\r\n\r\n    /*\r\n    * variables constantes\r\n    */\r\n    uint constant public MAX_COUNT = 100;\r\n\r\n    /*\r\n    * mapping\r\n    */\r\n    mapping (address => bool) public isPatient; // retourne oui si c'est vraiment le patient\r\n    mapping (address => bool) public isCentre; // retourne oui si cest vraiment le centre\r\n    mapping (uint256 => mapping (address => Records)) records; // retourner les enregistrements du patient\r\n     // retourner les enregistrements dse hashes du patient\r\n    mapping (uint256 => Records) recordsjson;\r\n    mapping (uint256 => dateRange) dateRanges; //retourne les dates d'admission et de liberation du centre medical\r\n    mapping (address => mapping (string => uint256)) mappingByName; // mapper l'adresse a partir du nom du patient\r\n    mapping (address => mapping (string => uint256)) mappingByMail; // mapper le mail  a partir du nom du patient\r\n    mapping (address => mapping (string => uint256)) mappingByPassp; // mapper la passprase a partir du nom du patient\r\n    uint256 public recordCount = 0; // compter les enregistrements des patients\r\n    uint256 public boolc = 0; // compter les enregistrements des patients\r\n    uint256 public boolp = 0; // compter les enregistrements des patients\r\n\r\n// premiere enregistrement de patient, structure des variables necessaires enregistres en premier lieu\r\n    struct Records {\r\n        bool providedName;\r\n        string message;\r\n        string name;\r\n        address patient;\r\n        address centre;\r\n        string nomcentre;\r\n        string adressmailm;\r\n        string adressmailp;\r\n        string nommedecin;\r\n        string passphrasem;\r\n        string passphrasep;\r\n        uint256 admissionDate;\r\n        uint256 dischargeDate;\r\n        string messageaupatient;\r\n        string visitReason;\r\n        string maladiedetecte;\r\n        string traitementprescrit;\r\n        string etatpatient;\r\n        string mtdhash;\r\n        string mndhash;\r\n        string mpdhash;\r\n        //uint256[] mtdhash;\r\n        //uint256[] mndhash;\r\n       // uint256[] mpdhash;\r\n    }\r\n// ajout des date d'admission et de date de liberation du centre\r\n    struct dateRange {\r\n        uint256 admissionDate;\r\n        uint256 dischargeDate;\r\n    }\r\n\r\n  // ajoutdes maladies detectes par patient, les traiteent et l'etat des patients\r\n    struct maladie{\r\n        string maladiedetecte;\r\n        string traitementprescrit;\r\n        string etatpatient;\r\n    }\r\n    \r\n    // ajout des messages au patient, rappel des rendez vs et vaccins..etc\r\n    struct message{\r\n        string messageaupatient;\r\n    }\r\n\r\n\r\n    Ownable own;\r\n    InterfacePatient interf;\r\n    /*\r\n    * Modifiers\r\n    */\r\n\r\n// counter les enregistrements\r\n    modifier validParameters(uint count) {\r\n        require(count <= MAX_COUNT && count != 0);\r\n        _;\r\n    }\r\n\r\n// fonction retourne non, car adresse du centre n'existe pas\r\n    modifier centreDoesNotExist(address centre) {\r\n        require(!isCentre[centre]);\r\n        _;\r\n    }\r\n// retourne oui apres verification de l'existence du centre\r\n    modifier centreExist(address centre) {\r\n        require(isCentre[centre]);\r\n        _;\r\n    }\r\n    \r\n// fonction qui retourne faux car adresse de patient n'existe pas\r\n    modifier patientDoesNotExist(address patient) {\r\n        require(!isPatient[patient]);\r\n        _;\r\n    }\r\n// retourne vrai car adresse patient existe\r\n    modifier patientExist(address patient) {\r\n        require(isPatient[patient]);\r\n        _;\r\n    }\r\n// retounne vrai si adress non null\r\n    modifier notNull(address _address) {\r\n        require(_address != address(0));\r\n        _;\r\n    }\r\n// retourne vrai, car nom possede une valeur\r\n    modifier notEmpty(string memory name) {\r\n        bytes memory tempString = bytes(name);\r\n        require(tempString.length != 0);\r\n        _;\r\n    }\r\n\r\n// retourne vrai, car nom possede une valeur\r\n    modifier emptPassphrasem(string memory passphrasem) {\r\n        bytes memory tempString = bytes(passphrasem);\r\n        require(tempString.length != 0);\r\n        _;\r\n    }\r\n\r\n\r\n// seulement le patient peut avoir acces a la fonction qui sera appele sur ce modifier\r\n    modifier onlyPatient(uint256 recordId) {\r\n        require(records[recordId][msg.sender].patient == msg.sender);\r\n        _;\r\n    }\r\n// seulement un patient du centre peut avoir acces a la fonction qui sera appele sur ce modifier\r\n    modifier onlyCentre(uint256 recordId, address _patientAddress) {\r\n        require(records[recordId][_patientAddress].centre == msg.sender);\r\n        _;\r\n    }\r\n// retourne vrai si les enregistrements de ce patient existent\r\n    modifier recordExists(uint256 recordId, address patientAddress) {\r\n        address _centre = records[recordId][patientAddress].centre;\r\n        require(_centre != address(0));\r\n        _;\r\n    }\r\n    \r\n// retourne vrai si les enregistrements de ce centre existent\r\n    modifier recordExistsjson(uint256 recordId) {\r\n        address _centre = recordsjson[recordId].centre;\r\n        require(_centre != address(0));\r\n        _;\r\n    }\r\n\r\n// retourne vrai, car le patient accorde son autorisation en donnant son nom\r\n    modifier patientProvidedName(uint256 recordId, address patient) {\r\n        require(records[recordId][patient].providedName == true);\r\n        _;\r\n    }\r\n// retourne faux, si patient refuse l'acces a ses donnnees\r\n    modifier patientNotProvidedName(uint256 recordId, address patient) {\r\n        require(records[recordId][patient].providedName == false);\r\n        _;\r\n    }\r\n\r\n    modifier higherThanZero(uint256 _uint) {\r\n        require(_uint > 0);\r\n        _;\r\n    }\r\n\r\n    /*\r\n     * Public fonctions\r\n     */\r\n    /// Contract constructeur initial des patients et centres.\r\n    /// parametres _centres Address tableau des centres initiales.\r\n    /// parametres _patients Address tableau des patients initiatles\r\n\r\n    constructor()public{\r\n\r\n\r\n    }\r\n\r\n    /// fonction pour autoriser l'ajout d'un centre\r\n    // verifier que le centre n'existe pas encore\r\n    // seulement un medecin poura le faire\r\n    function addCentre(address _centre) external onlyOwner\r\n    {\r\n        isCentre[_centre] = true;\r\n        boolc=1;\r\n        emit CentreAddition(_centre);\r\n    }\r\n\r\n    /// fonction pour autoriser l'ajout d'un patient\r\n    // verifier que le patient n'existe pas encore\r\n    // seulement un medecin poura le faire\r\n    function addPatient(address _patient)\r\n        external\r\n        onlyOwner\r\n        patientDoesNotExist(_patient)\r\n        centreDoesNotExist(_patient)\r\n        notNull(_patient)\r\n    {\r\n        isPatient[_patient] = true;\r\n        boolp=1;\r\n        emit PatientAddition(_patient);\r\n    }\r\n\r\n\r\n    /// fonction pour autoriser l'ajout de dse MND patient\r\n    // verifier que le patient existe deja\r\n    // seulement un medecin poura le faire\r\n    function addMndpatient(address _patient)\r\n        external\r\n        onlyOwner\r\n        patientExist(_patient)\r\n        notNull(_patient)\r\n    {\r\n        isPatient[_patient] = true;\r\n        emit PatientMndAdded(_patient);\r\n    }\r\n    /// Fonctions autoriser les ajouts denregistrements patient\r\n    /// avec les parametres _patientAddress address of the patient for record.\r\n    /// le medecin cree le patient sans renseigner le nom du \r\n    \r\n      function addRecord3 (\r\n        address _centre,\r\n        string memory _nompatient,\r\n        string memory _nommedecin,\r\n        string memory _raisonvisite,\r\n        string memory _maladiedetecte,\r\n        string memory _traitementprescrit,\r\n        string memory _etatpatient)\r\n        public\r\n        centreExist(_centre)\r\n    {\r\n        recordsjson[recordCount].providedName = false;\r\n        recordsjson[recordCount].centre = _centre;\r\n        recordsjson[recordCount].name= _nompatient;\r\n        recordsjson[recordCount].nommedecin= _nommedecin;\r\n        recordsjson[recordCount].visitReason= _raisonvisite;\r\n        recordsjson[recordCount].maladiedetecte= _maladiedetecte;\r\n        recordsjson[recordCount].traitementprescrit= _traitementprescrit;\r\n        recordsjson[recordCount].etatpatient= _etatpatient;\r\n\r\n        emit PatientRecordAdded1(\r\n            recordCount);\r\n\r\n        recordCount += 1;\r\n    }\r\n    \r\n    function getRecord3(uint256 _recordID,address _centre)\r\n        public\r\n            centreExist(_centre)\r\n             view\r\n                returns (\r\n                    string memory _nompatient,\r\n                    string memory _nommedecin,\r\n                    string memory _maladiedetecte,\r\n                    string memory _traitementprescrit,\r\n                    string memory _etatpatient\r\n                )\r\n            {\r\n                _nompatient = recordsjson[_recordID].name;\r\n                _nommedecin = recordsjson[_recordID].nommedecin;\r\n                _maladiedetecte = recordsjson[_recordID].maladiedetecte;\r\n                _traitementprescrit = recordsjson[_recordID].traitementprescrit;\r\n                _etatpatient = recordsjson[_recordID].etatpatient;\r\n\r\n    }\r\n    \r\n    function getRecordcount(address _centre)\r\n        public\r\n            centreExist(_centre)\r\n             view\r\n                returns (\r\n                    uint256 _countrecord\r\n                )\r\n            {\r\n                _countrecord = recordCount;\r\n\r\n    }\r\n    \r\n    \r\n    function addRecord (\r\n        address _patientAddress,\r\n        address _centre,\r\n        string calldata _nommedecin,\r\n        string calldata _passphrasem,\r\n        string calldata _adressmailm)\r\n        external\r\n        onlyOwner\r\n        patientExist(_patientAddress)\r\n        centreExist(_centre)\r\n    {\r\n        records[recordCount][_patientAddress].providedName = false;\r\n        records[recordCount][_patientAddress].patient = _patientAddress;\r\n        records[recordCount][_patientAddress].centre = _centre;\r\n        records[recordCount][_patientAddress].nommedecin= _nommedecin;\r\n        records[recordCount][_patientAddress].adressmailm= _adressmailm;\r\n        records[recordCount][_patientAddress].passphrasem= _passphrasem;\r\n\r\n        emit PatientRecordAdded(\r\n            recordCount,\r\n            _patientAddress);\r\n\r\n        recordCount += 1;\r\n    }\r\n    // \r\n    function addRecord2 (\r\n        address _patientAddress,\r\n        address _centre,\r\n        string calldata _raisonvisite,\r\n        string calldata _maladiedetecte,\r\n        string calldata _traitementprescrit,\r\n        string calldata _etatpatient)\r\n        external\r\n        onlyOwner\r\n        patientExist(_patientAddress)\r\n        centreExist(_centre)\r\n    {\r\n        records[recordCount][_patientAddress].providedName = false;\r\n        records[recordCount][_patientAddress].patient = _patientAddress;\r\n        records[recordCount][_patientAddress].centre = _centre;\r\n         records[recordCount][_patientAddress].visitReason= _raisonvisite;\r\n        records[recordCount][_patientAddress].maladiedetecte= _maladiedetecte;\r\n        records[recordCount][_patientAddress].traitementprescrit= _traitementprescrit;\r\n        records[recordCount][_patientAddress].etatpatient= _etatpatient;\r\n\r\n        emit PatientRecordAdded(\r\n            recordCount,\r\n            _patientAddress);\r\n\r\n        recordCount += 1;\r\n    }\r\n\r\n\r\n// enregistrer  des donnees textuels hashes\r\n       function addmtd (\r\n        address _patientAddress,\r\n        address _centre,\r\n        string calldata _mtdhash\r\n        )\r\n        external\r\n        onlyOwner\r\n        patientExist(_patientAddress)\r\n        centreExist(_centre)\r\n    {\r\n\r\n        //ipfshashs[recordCount][_patientAddress].mtdhash = _mtdhash;\r\n        records[recordCount][_patientAddress].mtdhash=_mtdhash;\r\n\r\n        emit PatientRecordAdded(recordCount, _patientAddress);\r\n\r\n        recordCount += 1;\r\n    }\r\n    \r\n\r\n    // enregistrer  des donnees numeric hashes\r\n       function addmnd (\r\n        address _patientAddress,\r\n        address _centre,\r\n        string calldata _mndhash\r\n        )\r\n        external\r\n        onlyOwner\r\n        patientExist(_patientAddress)\r\n        centreExist(_centre)\r\n    {\r\n\r\n        records[recordCount][_patientAddress].mndhash = _mndhash;\r\n\r\n        emit PatientRecordAdded(recordCount, _patientAddress);\r\n\r\n        recordCount += 1;\r\n    }\r\n\r\n    // enregistrer  des donnees private hashes\r\n       function addmpd (\r\n        address _patientAddress,\r\n        address _centre,\r\n        string calldata _mpdhash\r\n        )\r\n        external\r\n        onlyOwner\r\n        patientExist(_patientAddress)\r\n        centreExist(_centre)\r\n    {\r\n\r\n        records[recordCount][_patientAddress].mpdhash = _mpdhash;\r\n\r\n        emit PatientRecordAdded(recordCount, _patientAddress);\r\n\r\n        recordCount += 1;\r\n    }\r\n\r\n\r\n\r\n    /// fonction pour autoriser un chercheur ou un centre de voir le nombre de dossiers enregistrement pour un patient par centre\r\n    /// avec parametre le nom du patient\r\n    function getRecordByName(string calldata _name)\r\n        external\r\n        centreExist(msg.sender)\r\n        view\r\n        returns (uint256 numberOfRecords)\r\n    {\r\n        if (mappingByName[msg.sender][_name] != 0) {\r\n            numberOfRecords = mappingByName[msg.sender][_name];\r\n            return numberOfRecords;\r\n        }\r\n        else\r\n            return 0;\r\n    }\r\n\r\n    /// fonction pour autoriser un centre d'avoir acces aux infos dun patient\r\n    /// avec les paraetres _recordID ID de ce patient.\r\n    /// et _patientAddress address du patient pour acceder a ses infos.\r\n    // seul un medecin du centre peut acceder et il faut l'acord du patient\r\n    function getRecord(uint _recordID, address _patientAddress)\r\n        public\r\n        recordExists(_recordID, _patientAddress)\r\n        //patientProvidedName(_recordID, _patientAddress)\r\n        onlyCentre(_recordID, _patientAddress)\r\n        view\r\n        returns (\r\n            address _centre,\r\n            string memory _raisonvisite,\r\n            string memory _maladiedetecte,\r\n            string memory _traitementprescrit,\r\n            string memory _etatpatient\r\n        )\r\n    {\r\n        _centre = records[_recordID][_patientAddress].centre;\r\n        _raisonvisite = records[_recordID][_patientAddress].visitReason;\r\n        _maladiedetecte = records[_recordID][_patientAddress].maladiedetecte;\r\n        _traitementprescrit = records[_recordID][_patientAddress].traitementprescrit;\r\n        _etatpatient = records[_recordID][_patientAddress].etatpatient;\r\n    }\r\n\r\n    function getRecord1(uint256 _recordID,address _patientAddress)\r\n            public\r\n                patientExist(_patientAddress)\r\n                view\r\n                    returns (\r\n                        string memory _nommedecin,\r\n                        string memory _raisonvisite\r\n                    )\r\n                {\r\n                    _nommedecin = records[_recordID][_patientAddress].nommedecin;\r\n                    _raisonvisite = records[_recordID][_patientAddress].visitReason;\r\n        }\r\n    \r\n    function getmndhash(uint _recordID, address _patientAddress)\r\n        public\r\n        recordExists(_recordID, _patientAddress)\r\n        view\r\n        returns (\r\n            string memory _mndhash\r\n        )\r\n    {\r\n        _mndhash= records[recordCount][_patientAddress].mndhash;\r\n    }\r\n    \r\n    \r\n    // medecin envoyer des messages au patient\r\n       function addmessage (\r\n        address _patientAddress,\r\n        address _centre,\r\n        string memory _message\r\n        )\r\n        public\r\n        patientExist(_patientAddress)\r\n        centreExist(_centre)\r\n    {\r\n\r\n        records[recordCount][_patientAddress].messageaupatient = _message;\r\n\r\n        emit PatientRecordAdded(recordCount, _patientAddress);\r\n\r\n        recordCount += 1;\r\n    }\r\n    \r\n    // fonction get message envoyes par les medecins aux patients\r\n     function getmessage (uint _recordID, address _patientAddress) public \r\n      patientExist(_patientAddress)\r\n        view\r\n        returns (string memory _message)\r\n        \r\n        {\r\n            _message = records[_recordID][_patientAddress].messageaupatient;\r\n            return _message;\r\n        }\r\n\r\n    function calcul(uint _a, uint _b) external onlyOwner \r\n    view \r\n    returns (uint _c) {\r\n        _c=_a+_b;\r\n        return _c;\r\n    }\r\n    \r\n    function getAdressC() public \r\n    view \r\n    returns (address _centreAddress) {\r\n        _centreAddress=owner;\r\n        return _centreAddress;\r\n    }\r\n\r\n}",
  "sourcePath": "E:\\icube\\test\\testganache\\src\\contracts\\PatientRecords.sol",
  "compiler": {
    "name": "solc",
    "version": "0.5.16+commit.9c3226ce.Emscripten.clang"
  },
  "schemaVersion": "3.1.0",
  "updatedAt": "2020-10-08T15:03:36.579Z",
  "devdoc": {
    "methods": {}
  },
  "userdoc": {
    "methods": {}
  }
}